:020000040800F2
:10000000C009002029020008AF160008B715000833
:10001000AD1600081F040008B91A0008000000000F
:10002000000000000000000000000000B3160008FF
:100030002104000800000000B1160008B5160008F1
:10004000430200084302000843020008430200087C
:10005000430200084302000843020008430200086C
:10006000430200084302000843020008430200085C
:10007000430200084302000843020008430200084C
:10008000430200084302000843020008430200083C
:10009000430200084302000843020008430200082C
:1000A000430200084302000843020008430200081C
:1000B000430200084302000843020008430200080C
:1000C00043020008430200084302000843020008FC
:1000D000430200084302000843020008AD1A00086A
:1000E00043020008430200084302000843020008DC
:1000F00043020008430200084302000843020008CC
:1001000043020008430200084302000843020008BB
:100110004302000843020008591700084302000880
:10012000430200084302000843020008430200089B
:10013000430200084302000843020008430200088B
:10014000430200084302000843020008430200087B
:10015000430200084302000843020008430200086B
:10016000430200084302000843020008430200085B
:100170004302000843020008430200080000000098
:10018000430200084302000800F002F800F03CF8C7
:100190000AA090E8000C82448344AAF10107DA45E2
:1001A00001D100F031F8AFF2090EBAE80F0013F0F8
:1001B000010F18BFFB1A43F001031847102100007C
:1001C00030210000103A24BF78C878C1FAD852070D
:1001D00024BF30C830C144BF04680C6070470000C1
:1001E0000023002400250026103A28BF78C1FBD840
:1001F000520728BF30C148BF0B6070471FB502F0DF
:100200004EF81FBD10B510BD00F0CFF81146FFF736
:10021000F5FF01F063FC00F0EDF803B4FFF7F2FF27
:1002200003BC00F0F5F80000094880470948004782
:10023000FEE7FEE7FEE7FEE7FEE7FEE7FEE7FEE796
:10024000FEE7FEE704480549054A064B70470000F3
:100250004917000889010008C0030020C0090020D8
:10026000C0050020C005002053EA020C00F06980A0
:100270002DE9F04B4FF00006002B1FBFB3FA83F5BA
:1002800003FA05F424FA05F65E4012BF1643B2FAEB
:1002900082F502FA05F4C5F120051EBF22FA05FC1D
:1002A00044EA0C04203556EA044C4FEA144418BFC3
:1002B000641C4FF000084FF00009904271EB030CF2
:1002C00039D3002919BFB1FA81F701FA07F6B0FA5C
:1002D00080F700FA07F6C7F120071EBF20FA07FCD7
:1002E00046EA0C062037B6FBF4FCA7EB0507103FE7
:1002F00007F01F0BCBF120060CFA0BFB2CFA06F6CD
:1003000044BFB3460026202FA4BF5E464FF0000B2B
:100310005BEA060C08BF4FF0010B19EB0B09ABFBB6
:10032000027C48EB0608C01B06FB02CC0BFB03CC8F
:1003300071EB0C01C1E70B46024641464846BDE859
:10034000F08B13B54FF000004FF00001AFF30080C9
:10035000BDE81C4070474FF0000200B513469446BC
:100360009646203922BFA0E80C50A0E80C50B1F10D
:100370002001BFF4F7AF090728BFA0E80C5048BF21
:100380000CC05DF804EB890028BF40F8042B08BFBF
:10039000704748BF20F8022B11F0804F18BF00F8BB
:1003A000012B7047704770477047754600F02CF876
:1003B000AE4605006946534620F00700854618B052
:1003C00020B5FFF73FFFBDE820404FF000064FF09B
:1003D00000074FF000084FF0000B21F00701AC467A
:1003E000ACE8C009ACE8C009ACE8C009ACE8C00999
:1003F0008D46704710B50446AFF300802046BDE837
:100400001040FFF70ABF0000004870475C0300205F
:1004100001491820ABBEFEE7260002007047FEE748
:10042000704772B6FEE72DE9F0410446876D00F093
:100430005FF9064694F835000025022806D0802092
:10044000606584F834500120BDE8F08120680168BF
:1004500021F0160101602068416921F080014161AD
:10046000206C08B9A06C20B12068016821F0080157
:1004700001602068016821F0010101600CE000F0DA
:1004800037F9801B052807D920206065032084F8F0
:10049000350084F83450D7E720680068C007EED1F3
:1004A00094F85C103F208840B860012084F8350043
:1004B00084F834500020C7E790F83510022903D0A3
:1004C0008021416501207047052180F835100068C2
:1004D000016821F0010101600020704770B50446F9
:1004E00000F006F90546601C02D004480078044478
:1004F00000F0FEF8401BA042FAD370BD7C00002043
:100500002DE9F84FDFF8BCA10022012503264FF0AA
:100510000F090AF1040BAAF1040E00BF0B6805FADB
:1005200002F42340A34270D10F7907F00307012F93
:1005300001D0022F16D187684FEA420806FA08FC5C
:1005400027EA0C07D1F80CC00CFA08FC4CEA070C9F
:10055000C0F808C04768A7430C79C4F3001494405E
:100560003C4344600C79E443A4070AD0C4684FEAD2
:10057000420C06FA0CF7BC438F6807FA0CF72743C6
:10058000C7600C7904F00304022C12D1D40800EBEC
:10059000840CDCF820405707FF0E09FA07F824EA1C
:1005A0000804D1F8108008FA07F848EA0408CCF8E3
:1005B000208004684FEA420C06FA0CF7BC430F791E
:1005C00007F0030707FA0CF7274307604C6814F499
:1005D000403F70D03C4C276847F480472760246830
:1005E00022F0030704F480440094384C07EB040C19
:1005F000DCF8084897074FEA177809FA08F7BC4370
:10060000334FB84202D1002724E054E0314FB842C2
:1006100001D101271EE0304FB84201D1022719E075
:100620002E4FB84201D1032714E02D4FB84201D11B
:1006300004270FE02B4FB84201D105270AE02A4FCB
:10064000B84201D1062705E0284FB84201D107275B
:1006500000E0082707FA08F72743CCF80878DAF80B
:1006600000405746D1F804C09C435FEACC2C00D52B
:100670001C433C60DBF800405F46D1F804C09C435B
:100680005FEA8C2C00D51C433C60DEF800407746C6
:10069000D1F804C09C435FEA8C3C00D51C433C600D
:1006A000084F083F3C68D1F804C09C435FEACC3C4B
:1006B00000D51C433C60521C102AFFF42FAFBDE84C
:1006C000F88F0000083C01404438024000300140EF
:1006D000000002400004024000080240000C0240FA
:1006E000001002400014024000180240001C0240AA
:1006F00001488068704700007C0000200248816843
:1007000002781144816070477C0000200B4810B5CE
:10071000016841F400710160016841F48061016089
:10072000016841F480710160032000F06FF80F2030
:1007300000F006F800F024F8002010BD003C024054
:1007400070B50D4D04464FF47A712878B1FBF0F086
:100750000A490968B1FBF0F000F00CFB48B9102C15
:1007600007D200222146501E00F030F800206C60B5
:1007700070BD012070BD00007C00002088000020BA
:100780000A4808B5016841F480410160006800F43E
:10079000804000900548001F016841F080510160D1
:1007A000006800F08050009008BD0000443802400E
:1007B000002809DB00F01F02012191404009800060
:1007C00000F1E020C0F8001170470000F0B40E4BBB
:1007D0001B680C46C3F30223C3F10705042D00D99F
:1007E0000425191D072901D2002300E0DB1E012684
:1007F00006FA05F1491E214099409E40761E16409A
:100800003143F0BC01F059B90CED00E0064900F0AD
:10081000070208684FF6FF03184040EA0220034A27
:1008200010430860704700000CED00E00000FA057E
:100830002DE9F0470E46050065D0DFF81481D8F8A1
:100840000000F7B200F00700B04207D288F800704D
:10085000D8F8000000F00700B04254D128683D4CA1
:10086000810712D5400703D5206840F4E05020608E
:100870002878000703D5206840F460402060206895
:10088000A96820F0F000084320602878C0072DD028
:10089000304968680839012812D0022813D003288B
:1008A00011D00968890700292DDA216821F0030198
:1008B00001432160FFF71CFF814641F2883A0EE0B8
:1008C00009688903EFE709688901ECE7FFF710FF82
:1008D000A0EB0901514502D90320BDE8F08720684B
:1008E000696800F00C00B0EB810FEFD1D8F8001070
:1008F000404601F00701B14207D90770006800F0D7
:100900000700B04201D00120E7E72878400705D56D
:100910002068E96820F4E050084320602878000748
:1009200006D52068296920F4604040EAC1002060B3
:1009300000F038F82168084AC1F30311515CC8403F
:100940000649086006480068FFF7FAFE0020C4E781
:10095000003C024008380240B22200088800002013
:10096000800000200448054900680968044AC1F372
:100970008221515CC840704788000020083802403E
:10098000C22200080448054900680968044AC1F306
:100990004231515CC840704788000020083802404E
:1009A000C2220008154810B5006810F00C02144867
:1009B00013D01449042A0FD0082A0ED10F4C241F3B
:1009C0002268236802F03F025B0207D52068C0F36B
:1009D0008810A0FB010106E0084610BD2168C1F3A4
:1009E0008811A1FB00010023FFF73EFC2168C1F341
:1009F0000141491C4900B0FBF1F010BD083802402C
:100A00000024F40040787D012DE9F84F04006ED0F9
:100A10002078DFF84C93C007A9F104054AD009F10A
:100A200004000168C1F38101012908D00068C0F306
:100A3000810002280AD1D9F80000400206D52868B2
:100A4000800337D560680028E1D033E06068B0F5F6
:100A5000803F10D0B0F5A02F286810D020F480304F
:100A60002860286820F4802028606068A8B1FFF71B
:100A70003FFE06460DE0286840F48030F4E740F47D
:100A800080202860F7E700BFFFF732FE801B642854
:100A900073D828688003F7D50CE0FFF729FE0646D7
:100AA00005E000BFFFF724FE801B6428F0D828680B
:100AB0008003F7D42078DFF8AC8280074FF0000A7B
:100AC0003ED5A748001D016811F00C0F08D0006842
:100AD000C0F3810002280BD1D9F80000400207D4EE
:100AE0002868800716D5E068012800D112E033E1BC
:100AF000E068B8B10120C8F80000FFF7F9FD06462C
:100B000005E000BFFFF7F4FD801B0228C0D828686D
:100B10008007F7D52868216920F0F80040EAC10075
:100B200028600DE0C8F800A0FFF7E2FD064604E0EB
:100B3000FFF7DEFD801B02281FD828688007F7D446
:100B40002078000722D5864F87486169703771B1D8
:100B500001210160FFF7CCFD064604E0FFF7C8FD68
:100B6000801B022809D838688007F7D50EE0C0F846
:100B700000A0FFF7BDFD064605E082E0FFF7B8FDE7
:100B8000801B02287DD838688007F7D4207840077A
:100B900068D5DFF8CCB100270BF13C0BDBF8000087
:100BA000C0000BD4DBF8001041F08051CBF80010EE
:100BB000DBF80000012700F0805000906B4E306899
:100BC000C00510D4306840F480703060FFF790FDAD
:100BD000009005E0FFF78CFD0099401A022850D8DC
:100BE0003068C005F6D55E4EA0686C3601280FD07F
:100BF0000528306810D020F001003060306820F007
:100C000004003060A068B8B1FFF772FD00900FE0FB
:100C1000306840F00100F4E740F004003060F7E78E
:100C2000FFF766FD0099411A41F28830814266D88B
:100C300030688007F4D50EE0FFF75AFD009007E01A
:100C4000FFF756FD0099411A41F28830814256D88B
:100C500030688007F4D42FB1DBF8001021F0805108
:100C6000CBF80010A069C8B33D49091D0968C1F35C
:100C7000810102294AD00228504607D0C8F86000F6
:100C800000E03CE0FFF734FD04463BE04746C8F88F
:100C90006000FFF72DFD064605E000BFFFF728FDC9
:100CA000801B02282BD828688001F7D4D4E90701DB
:100CB0000843A16A2E4A490802EB0141626A41EAEF
:100CC0008211084394F82C1040EA0161C9F8001021
:100CD00001203866FFF70CFD044606E03EE000BF49
:100CE000FFF706FD001B022809D828688001F7D508
:100CF00034E000BFFFF7FCFC001B022802D90320F0
:100D0000BDE8F88F28688001F4D427E00128F7D0E7
:100D1000D9F80000E26900F4800191421CD1226AF6
:100D200000F03F01914217D147F6C071626A01405D
:100D3000B1EB821F10D1A26A4FF0FF3300F44031B3
:100D400003EB5202B1EB024F06D194F82C1000F0E5
:100D50007060B0EB016F01D00120D1E70020CFE738
:100D60000438024000004742800E474200700040B5
:100D70000000FFFF10B5401EB0F1807F01D30120BD
:100D800010BD4FF0E02460610F21601700F095FE68
:100D90000020A06107202061002010BD704770472F
:100DA00070B590F83C20012A32D0012480F83C40F4
:100DB000022280F83D2003685A689D6822F0700680
:100DC0000A6832435A60134B02689A4214D0B2F157
:100DD000804F11D0104B9A420ED0104B9A420BD03C
:100DE0000F4B9A4208D00F4B9A4205D00E4B9A42B5
:100DF00002D00E4B9A4204D1496825F08003194372
:100E0000916080F83D40002180F83C10084670BD9C
:100E1000022070BD000001400004004000080040B6
:100E2000000C004000040140004001400018004058
:100E300010B5040003D094F83D0010B107E0012084
:100E400010BD002084F83C00204600F01FF802206E
:100E500084F83D00211D206800F084FC012084F806
:100E6000460084F83E0084F83F0084F8400084F88F
:100E7000410084F8420084F8430084F8440084F878
:100E8000450084F83D00002010BD000008B5006852
:100E90000B49884212D10B48016841F010010160F2
:100EA0000068002200F01000009001213620FFF7BA
:100EB0008DFCBDE808403620FFF77ABC08BD000075
:100EC000001000404038024090F83D10012901D048
:100ED00001207047022180F83D100168CA6842F085
:100EE0000102CA6000681149884214D0B0F1804FF5
:100EF00011D00F4988420ED00E4988420BD00E49BE
:100F0000884208D00D49884205D00D49884202D058
:100F10000C49884204D1816801F00701062903D0F9
:100F2000016841F0010101600020704700000140AC
:100F30000004004000080040000C00400004014094
:100F40000040014000180040704770B5044600683A
:100F500001694FF00005C943890715D4C168C94329
:100F6000890711D4E91E016101202077206880697A
:100F70008007204602D0FFF7E7FF04E000F098F872
:100F8000204600F096F8257720680169C943490793
:100F900017D4C168C943490713D46FF00401016134
:100FA000022020772068806910F4407F204602D01C
:100FB000FFF7CAFF04E000F07BF8204600F079F864
:100FC000257720680169C943090716D4C168C94358
:100FD000090712D46FF0080101610420207720680E
:100FE000C0698007204602D0FFF7AEFF04E000F0A2
:100FF0005FF8204600F05DF8257720680169C94355
:10100000C90617D4C168C943C90613D46FF01001CB
:101010000161082020772068C06910F4407F2046D5
:1010200002D0FFF791FF04E000F042F8204600F004
:1010300040F8257720680169C943C90708D1C1680C
:10104000C943C90704D1891E0161204600F032F866
:1010500020680169C943090609D4C168C943090662
:1010600005D46FF0800101612046FFF797FE2068EC
:101070000169C943490609D4C168C943490605D471
:101080006FF040010161204600F09AF82068016984
:10109000C94389060BD4C168C943890607D46FF0D8
:1010A000200101612046BDE87040FFF778BE70BDA9
:1010B0007047704710B532492DED068B00688842A5
:1010C0005BD13048DFED300A9FED31AAB0F9040062
:1010D000304C00EE100AB8EEC00A20EE200ADFED18
:1010E0002B0A20EE200AF2EE040A20EE0A0A84ED12
:1010F000000A20EE200ADFED280A6068A06080EE7A
:10110000208A01F05BF89FED251B53EC112B00F0BA
:101110006DFE41EC190B18EE100A01F04FF89FED2F
:10112000211B53EC112B00F061FE53EC192B00F046
:10113000B5FD00F081FD606001F040F89FED1B1BE4
:1011400053EC112B00F052FE41EC180BE06801F05B
:1011500035F853EC182B00F0A1FD00F06DFD15499A
:10116000E060884203DD9FED140A84ED030A134911
:10117000E068884201D984ED03AABDEC068B10BD5E
:101180000010004026000020000000380000484306
:101190000000344368000020000024439A99999984
:1011A0009999B93FCDCCCCCCCCCCEC3F7B14AE479D
:1011B000E17A843F00003443000034C3000034C3AC
:1011C0007047704770470000F8B50168044608682A
:1011D000CA684B6910F00F0F4FF0000559D003F0AB
:1011E000010602F49077374365D0C10705D0D105D9
:1011F00003D5216C41F001012164410705D5D907D0
:1012000003D0216C41F002012164810705D5D90783
:1012100003D0216C41F004012164010707D502F0DD
:101220002001314303D0216C41F008012164216C7D
:1012300000293AD0800604D5900602D5204600F059
:1012400030FB20684069216CC0F38010090700D48E
:1012500060B3204600F0FEFA20684069400621D5C0
:101260002068143050E8001F21F0400140E80012CF
:10127000002AF5D1A06BA8B16C490165A06BFFF7FE
:101280001BF9002811D0A06B016D01B0BDE8F04042
:10129000084783060FD593060DD52046BDE8F840D4
:1012A00000F0FFBA2046FFF78DFFF8BD2046FFF79C
:1012B00089FF2564F8BD266B2023012E79D1C6064F
:1012C00077D5D60675D50868486800904869400605
:1012D00040D5A16B086840680004000CEAD0A28DDC
:1012E0008242E7D9E085C869B0F5807F2DD02068BB
:1012F0000C3050E8001F21F4807140E80012002AF1
:10130000F5D12068143050E8001F21F0010140E8B9
:101310000012002AF5D12068143050E8001F21F097
:10132000400140E80012002AF5D184F83E302563E0
:1013300020680C3050E8001F21F0100140E8001236
:10134000002AF5D1A06BFFF76EF8A08DE18D401A51
:1013500081B229E0A08DE18D401A81B2E08D002894
:10136000A8D00029A6D020680C3050E8002F22F425
:10137000907240E80026002EF5D12068143050E825
:10138000002F22F0010240E80026002EF5D184F85B
:101390003E30256320680C3050E8002F22F0100208
:1013A00040E80023002BF5D12046FFF70AFFF8BDE7
:1013B000FFE705062BD5150629D594F83D00212811
:1013C000F5D1A068B0F5805F01D12069B0B1206A85
:1013D000411C2162216800784860E08C401E0004B6
:1013E000000CE084E3D12068C16821F08001C16075
:1013F0002068C16841F04001C160D8E7206A0088D8
:10140000C0F308004860206A801C2062E5E74006BF
:10141000CDD55006CBD5CA68204622F04002CA601E
:1014200084F83D3000F0C6F8C1E700004518000818
:1014300070B5040004D094F83D00002510B106E01A
:10144000012070BD84F83C50204600F023F8242091
:1014500084F83D002068C16821F40051C160204635
:1014600000F080FA2068016921F490410161206850
:10147000416921F02A0141612068C16841F40051AD
:10148000C1602564202084F83D0084F83E000020DF
:1014900070BD000070B586B0044614216846FEF7A2
:1014A0005AFF284E226800212748022303240725DB
:1014B000B2421DD1244A1432166846F01006166056
:1014C000126802F010020592026842F00102026006
:1014D000006802AA00F00100059082E83200600274
:1014E000CDE9000369461948FFF70AF806B070BD58
:1014F000174EB242FAD1144A1032166846F48026CA
:101500001660126802F480220592026842F0080216
:101510000260006802AA00F00800059082E832002C
:101520004FF44070CDE9000369460A48FEF7E8FF32
:10153000002211462720FFF749F92720FFF738F945
:10154000D4E70000001001403038024000000240A3
:1015500000480040000C024090F83E30202B0ED195
:1015600059B152B190F83C30012B08D0012380F8DA
:101570003C300023036300F07BBA01207047022057
:101580007047000010B50068074988420BD101225E
:1015900006490748FFF7E0FF0448401E4078BDE8D1
:1015A000104000F0E3BA10BD004800407900002070
:1015B000180200207047FEE70D4808B5016841F0A9
:1015C00080010160016801F080010091016841F033
:1015D00008010160016801F008010091016841F013
:1015E00001010160006800F00100009008BD0000EA
:1015F000303802401CB500240F4800940D49019476
:10160000016040F24731C0E9011440F2E7318461E2
:10161000C160FFF70DFC08B1FEF703FF00946946B7
:1016200005480194FFF7BCFB002801D0FEF7F9FE46
:101630001CBD0000001000408C0100200C4810B5BB
:101640000A4901604FF4E1314160002181600C22C0
:10165000C160C0E904128161C161FFF7E9FE0028A1
:1016600003D0BDE81040FEF7DCBE10BD0010014005
:10167000D40100200C4810B50A4901604FF4E13153
:101680004160002181600C22C160C0E904128161C7
:10169000C161FFF7CDFE002803D0BDE81040FEF782
:1016A000C0BE10BD0048004018020020FEE7FEE763
:1016B00070477047FFF722B830B593B030216846C5
:1016C000FEF749FE14210CA8FEF745FE1C48002435
:1016D000016841F080510160006800F08050119075
:1016E0001848016841F4804101600068022500F457
:1016F00080401190012003901020049000950695E1
:101700000820CDE907405420CDE9090504200B90BD
:101710006846FFF779F908B172B6FEE70F20CDE908
:101720000C054FF48050CDE90E4002210CA8109416
:10173000FFF77EF8002801D072B6FEE713B030BD87
:1017400040380240007000400248016841F47001D6
:101750000160704788ED00E00148FFF7F6BB00002C
:101760008C010020F0B50268254C264D264E274FEF
:10177000274B4FF0804CA04209D0604507D0A842CB
:1017800005D0B04203D0B84201D0984204D122F033
:10179000700E4A6842EA0E02A0421BD0604519D082
:1017A000A84217D0B04215D0B84213D0984211D0F9
:1017B000184DA8420ED0184DA8420BD0174DA84284
:1017C00008D0174DA84205D0164DA84202D0164D9C
:1017D000A84203D122F44075CA682A434D6922F019
:1017E00080022A4302608A68C2620A688262A0425A
:1017F00001D0984201D10969016301214161F0BD25
:10180000000001400004004000080040000C0040BF
:1018100000040140004001400044014000480140F4
:1018200000180040001C004000200040044A034B08
:1018300011785854491C1170704700005C02002058
:101840007800002010B5806B0021C185C184FFF7AE
:10185000B9FC10BD01680C3151E8002F22F49072E0
:1018600041E80023002BF5D10168143151E8002F25
:1018700022F0010241E80023002BF5D1016B012980
:1018800009D101680C3151E8002F22F0100241E823
:101890000023002BF5D1202180F83E1000210163A8
:1018A000704708B590F83E10222901D0022008BDEB
:1018B00082684FF480539A4201D1016921B1816A53
:1018C0009A421BD04AB10AE00268816A5268C2F3A8
:1018D00008020A80816A891C08E0026972B1026804
:1018E000526802F07F020A70816A491C8162C18DD0
:1018F000491E0904090CC18503D019E00268526829
:10190000F1E70168CA6822F02002CA600168CA686B
:1019100022F48072CA6001684A6922F001024A61B9
:10192000202180F83E10016B012903D0FFF72AFE29
:10193000002008BD0021016301680C3151E8002F2F
:1019400022F0100241E80023002BF5D101680A685B
:10195000D20602D50A6849680091818DFFF731FCF3
:10196000E6E7000070B5044600680169E26821F40A
:101970004051114301612169A068E269084361692E
:10198000114308432168CA6849F20C639A43024331
:10199000CA6020684169A26921F440711143416124
:1019A00031492068884202D03049884202D1FEF78E
:1019B000E9FF01E0FEF7D6FFE26900231921642563
:1019C0003226B2F5004F626828D0A0FB0101930FC8
:1019D0009200FEF749FC0146B0FBF5F06FF01802EB
:1019E000504301EB800006EB0010B0FBF5F000F077
:1019F000F002B1FBF5F002EB0012B1FBF5F06FF075
:101A00001803584301EB800006EB0010B0FBF5F023
:101A100000F00F0021681044886070BDA0FB010138
:101A200092185B41FEF720FC0146B0FBF5F0020185
:101A3000B1FBF5F06FF01803584301EB800006EBA3
:101A4000C000B0FBF5F000F0F80002EB4002B1FB83
:101A5000F5F0584301EB800006EBC000B0FBF5F059
:101A600000F00700D6E7000000100140001401401C
:101A700081628285C28500210164222280F83E2095
:101A800080F83C10016921B10168CA6842F4807293
:101A9000CA6001684A6942F001024A610068C1688F
:101AA00041F02001C1600020704700000148FFF7AD
:101AB0008BBB000018020020FEE70907090E002872
:101AC00004DB00F1E02080F80014704700F00F0004
:101AD00000F1E02080F8141D70470000FEF716FEAC
:101AE000FFF7EAFDFFF768FDFFF784FDFFF7A6FDAE
:101AF000FFF7C0FD1048FFF7E7F901220F49104832
:101B0000FFF72AFD0F4800F025F86420FEF7E6FCF9
:101B10000D4800F01FF86420FEF7E0FC0B4800F0D1
:101B200019F86420FEF7DAFC094800F013F8642085
:101B3000FEF7D4FCFEE700008C01002079000020B5
:101B40001802002000000020050000200A000020EC
:101B50000F00002070B505460024285DFFF766FEE3
:101B6000641CE4B2052CF8D370BD0000314A10B5F6
:101B70002F491378C8545B1CD8B210700C7800231E
:101B8000552C53D10B2852D3487850380A284DD2BF
:101B9000DFE800F0050D151D252D353B414751F8B7
:101BA000020FC2F802004868C2F806003EE051F891
:101BB000020FC2F80A004868C2F80E0036E051F879
:101BC000020FC2F812004868C2F816002EE051F861
:101BD000020FC2F81A004868C2F81E0026E051F849
:101BE000020FC2F822004868C2F826001EE051F831
:101BF000020FC2F82A004868C2F82E0016E051F819
:101C0000020F50634868906310E051F8020FD063F0
:101C1000486810640AE051F8020F50644868906404
:101C200004E051F8020FD06448681065137010BDCD
:101C30008C0000201400002021F00042A2F160522C
:101C4000B2F5801F01F0004328BFD2F17F6C0BD9A1
:101C50005FEA001C43EAC20242EB507018BF7047B3
:101C600028BF20F001007047B2F5801FBCBF1846A6
:101C700070474FEA410C1CF5001F02D2084600F0E5
:101C800013BB70B500F05CF900000089FFF7F6BFE8
:101C90004FF00040A0F580007047000010B591EAB9
:101CA000030F48BF83F0004300F1A681841A71EB53
:101CB000030C05D2121943EB0C03001B61EB0C0162
:101CC000DFF824E14FEA1154A4EB135C1EEA430F42
:101CD00018BF9EEA445F73D023EA0E03DCF1200EA6
:101CE00021EA045143F4801332D322FA0CFE10EBA4
:101CF0000E0023FA0CFE41EB0E01CCF1200E03FA8C
:101D00000EFE10EB0E0051F10001B1F5801FCCF179
:101D1000200E32D201EB045112FA0EF2BDE810404F
:101D200058BF7047401C38BF5FEA420218BF704777
:101D3000002814BF20F0010041F100014FEA4103E7
:101D400013F5001F38BF7047A1F1C04100F046B93C
:101D5000012A43EB0302ACF1200CDCF11F0E32BF71
:101D60004FF0000E23FA0CF310EB030041EB04518B
:101D7000B4EB115FD0D0A1EB045101F580114908FB
:101D80005FEA300001EB04510ED350F1000038BF80
:101D900012FA0EFE08D1BDE81040C9E7401C38BF5A
:101DA0005FEA4202CAD1C3E7BDE810404FEA4103EF
:101DB00013F5001F38BF7047A1F1C04100F00EB904
:101DC0009EEA445F08D011EA5E0FBDE8104004BFF0
:101DD00001F0004100207047BDE8104070B500F0F0
:101DE000AFF800BF64FBBE3E0000E0FFDFF848C173
:101DF00070B51CEA111E1EBF1CEA13159EEA0C0FDB
:101E000095EA0C0F00F06F8081EA030423EA4C137B
:101E10004EEAD47E21EA4C1141F4801143F4801340
:101E2000AE44A1FB024CA0FB0365AEF17F7E3619E8
:101E300055EB0C05A1FB034C4CF10003A0FB021C6D
:101E400016EB0C06654153F10003094218BF46F03A
:101E5000010613F4007F0BD14FEA03314FEA05303E
:101E6000340341EA155140EA16506FF003020AE0CC
:101E70004FEAC3214FEAC520F40241EA555140EA36
:101E800056506FF0020202EB2E4201EB025585EA3A
:101E9000CE710AD05FEA440C18BF24F0004450F120
:101EA000000041F1000120EAD47040F2FE7C62455E
:101EB00000D270BDA84214BF4FF080444FF04044A0
:101EC000002E08BF0024BEF1806FA8BFA1F1C04161
:101ED000BDE8704080F282804FF0000001F1C04107
:101EE00001F0004170479EEA0C0F0CEA131518BF71
:101EF00095EA0C0F06D04FF0000081EA030E0EF0B9
:101F0000004170BD00F01CF88900013E00F007B8E8
:101F100000F009B84FEA430C5FEA5C5C08D081EA44
:101F2000030100F05BB84FEA410C5FEA5C5CF6D15C
:101F30004FF00000014970470000FF070000F87FE4
:101F40000EF1020E2EF0030E5EF8046B364205D43D
:101F5000012A43EB030515F5001F12D8012841EBB8
:101F6000010C1CF5001F0CD80ED14FEAD17C15F5E1
:101F7000001F0CEB4C0C0CF1020C08BF4CEBD37C9B
:101F800004E04FF0080C01E04FEAD37C0CEB4C0569
:101F900026FA05F606F00706B6F1040C06D20EEB9B
:101FA000860CBDE870404CF0010C6047DFE80CF097
:101FB000090B02024FF000414FF00000A1F5002193
:101FC00070BD19461046012851EB010418BFD4F525
:101FD000001484BF002001F0004170BD0808A0F586
:101FE00000114FEA3101704710B591EA030F48BF65
:101FF00083F000433FF55AAE841A71EB030C07D20D
:1020000012198CF0004C43EB0C03001B61EB0C012C
:10201000DFF8A4E14FEA1154A4EB135C1EEA430F6E
:1020200018BF9EEA445F00F0B08023EA6E0352427C
:1020300021EA0451C3EB6E0338BF5B1EDCF1200EB6
:1020400025D322FA0CFE10EB0E0043FA0CFE41EBF6
:102050000E01CCF1200E03FA0EFE10EB0E0051F132
:102060000001CCF1200E29D412FA0EF201EB04513A
:10207000BDE8104058BF7047401C1CBFB2F1004F74
:10208000704700280CBF491C20F00100704712EB7C
:10209000020E43EB030218BF4FF0010E4EEA42025C
:1020A000ACF1200CDCF11E0E54D943FA0CFE10EBFF
:1020B0000E0051F1FF31CCF11E0ED5D50EF1010EFF
:1020C00012FA0EFE404141EB010101EB445C5FEA74
:1020D0005C5C10D910EBDE7001EB045138BFBEF12F
:1020E000004FBDE8104018BF704700280CBF491CC6
:1020F00020F00100704730D24FEAD42C11F50011C6
:1021000024F400641BD0B1FA81F20B3AA41AA41E85
:10211000D2F12003914030FA03F31943904001EBD0
:10212000CC71002C01EB0451BDE81040A8BF7047F2
:1021300001F1C0414FF0000001F000417047B0FADA
:1021400080F310FA03F100D110BDE41A173C4805E2
:10215000C90AE4E701EB045110BD491001EB045139
:10216000BDE810404FEA300002E04FF00001704738
:102170004A0008BF0042F8D0B2F5001F28BF7047E0
:1021800001F000414FF0000070479EEA445F07D025
:1021900011EA5E0FBDE8104004BF00210020704727
:1021A000BDE8104070B5FFF7CBFE00BF40DFF63E44
:1021B00083F00041104670470000E0FF43004FEA03
:1021C000D30C4FEA3C0C43401FBF40070CF1605159
:1021D00013F0FE4F70471CF0006F03D100200CF08D
:1021E000004170470CF0004343EA507010B540EADC
:1021F000CC0000F00EF800BF000000924FEA000192
:10220000FFF7ECBE4FF000414FF00000A1F50021B8
:1022100070470EF1020E2EF0030E5EF8044B2442BE
:1022200004D44FEA4102B2F17F4F11D84FEA400384
:10223000B3F17F4F0CD80ED14FEAD07CB2F17F4F73
:102240000CEB4C0C0CF1020C08BF4CEBD17C04E005
:102250004FF0080C01E04FEAD17C0CEB4C0324FA60
:1022600003F404F00704B4F1040C06D20EEB840C62
:10227000BDE810404CF0010C6047DFE80CF00708A7
:1022800002024FF00040A0F5800010BD0846420059
:1022900018BFD2F1807288BF00F0004010BD4FF02F
:1022A0004070E1EE100A7047FF2141EAD050C005AE
:1022B0007047000000000000000001020304060750
:1022C000080900000000010203040000EC220008DD
:1022D000000000208C000000C401000878230008E2
:1022E0008C00002034090000E0010008FFAA010171
:1022F00000FFAA000000FFAA010700FFAA000000DB
:1023000000000000000000000000000000000000CD
:1023100000000000000000000000000000000000BD
:1023200000000000000000000000000000000000AD
:10233000000000000000000000000000000000009D
:10234000000000000000000000000000000000008D
:10235000000000000000000000000000000000007D
:10236000000000000000000001000000100000005C
:08237000000000000024F4004D
:040000050800018965
:00000001FF
